:02000000612974
:0E000600213083120313FD00FD0B07280800B4
:06001400000000000800DE
:10001A000F3083120313FC004730FD00FD0B132839
:0A002A00FC0B132800000000080082
:1000340083120313BD1B20288611212886153D1B1E
:100044002528061126280615BD1A2A2886102B28CD
:1000540086143D1A2F280610302806143518342823
:1000640006163528061286160A208612BD193C2863
:1000740086113D2886153D1941280611422806158A
:10008400BD1846288610472886143D184B280610AC
:100094004C280614351850280616512806128616C0
:1000A4000A208612351C58280D20592803200800E0
:1000B4008312031335103C08BD001A2035140800C0
:0E00C4008312031337088A00360882000800F2
:1000D20083160317880189018312871388138316F5
:1000E2000313850186018701880189018312850135
:0E00F200860187018801890183160716080020
:100100009228803083120313B800A528C030B800AD
:10011000A5289430B800A528D430B800A528803090
:10012000B800A528831203133808013A031981285F
:100130003808023A031986283808033A031989282F
:100140003808043A03198C288F283903F00038083E
:10015000F0077008B8007008BD001A203510BB0108
:100160003B083A07840000080319BE283B083A07F9
:1001700084000008BC005A20BB0AB02835140800CF
:1001800083160313861206120610861006118611B6
:1001900083128612061286110611861006100D2093
:1001A0000D200D208614061486160A2086120D20B6
:1001B00086160A2086120D2086160A2086120D2029
:1001C000061086160A2086120D2086160A20861230
:1001D0008610861586160A2086120D2086110614B2
:1001E00086160A208612061086160A2086120D2010
:1001F00086160A208612061486160A2086120D20FC
:10020000061086160A208612861506158614061410
:0C02100086160A2086120D203514080006
:10021C002029803083120313B8003329C030B80072
:10022C0033299430B8003329D430B80033298030C6
:10023C00B8003329831203133808013A03190F2924
:10024C003808023A031914293808033A03191729F4
:10025C003808043A03191A291D293903F000380803
:10026C00F0077008B80035147008BD001A2035105E
:0A027C003A08BD001A2035140800EE
:1002860083120313B90139083807840000080319DB
:1002960054293908380784000008BC005A20B90AD6
:0402A60046290800DD
:1002AA0062208A110A128000840AB60A0319B70A60
:0802BA00F003031D55290800A3
:1002C200473083120313A0007530A1006130A200F1
:1002D2006430A3006130A4006C30A5006130A60038
:1002E2006A30A7006130A8007230A9006130AA000C
:1002F2002030AB00AC014A30AD006130AE006C3052
:10030200AF006930B0007330B1006330B2006F30BB
:10031200B300B4016920C0200230FB000430FC00AD
:10032200BA30FD00FD0B9329FC0B9329FB0B93299B
:1003320000000130B8000130B9002030BA0080203E
:100342000230B8000130B900AD30BA000E212D30B4
:08035200B80043219A29AC29EF
:02035A0000346D
:04400E00F22F000786
:00000001FF
